:1000000041C07BC15AC059C058C057C056C055C026
:1000100054C053C052C051C050C04FC04EC04DC05C
:100020004CC04BC04AC049C048C047C046C045C08C
:1000300044C043C009021200010100C00A090400C3
:1000400000000000000012011001FF000008C016AF
:10005000DC050001010200011603550053004200B7
:100060002000440069006D006D00650072001203FD
:10007000530079006E0066006F0072006700650033
:100080000403090411241FBECFEFD2E0DEBFCDBFB1
:1000900011E0A0E0B1E0E6E5F6E002C005900D92C7
:1000A000A230B107D9F711E0A2E0B1E001C01D9282
:1000B000A033B107E1F7AFD2CCC2A2CFCF93DF9389
:1000C00060911601635067FDA1C080911301CCE0DF
:1000D000D0E0C81BD109C65EDE4F809112018D327F
:1000E00009F083C0683009F08FC083EC809306016B
:1000F0008AE580930001109202012881822F807688
:1001000019F0CE012DD25EC09A8110920F01898123
:1001100081110BC02F7119F481E080930F011092AF
:1001200010012FE031E082E049C0853019F490934E
:10013000170138C0863081F58B81813019F486E44F
:1001400090E004C0823041F484E390E09093150184
:100150008093140182E11CC08330C9F4911108C05E
:1001600080E890E0909315018093140184E010C022
:10017000913019F48EE690E0E9CF923041F488E5B1
:1001800090E0909315018093140186E101C080E016
:1001900090E49093020116C0883069F0893029F408
:1001A000909319012FE031E004C02FE031E08A3054
:1001B00021F080E003C029E131E081E030931501B6
:1001C000209314018F3F39F4988197FD8E8190E838
:1001D0009093020107C09F81911104C09E819817DE
:1001E00008F4892F809301010FC08091020187FFDD
:1001F0000BC0CE01C1D18F3F21F48EE1809300016D
:1002000003C081111092010110921601809100012A
:1002100084FF46C0809101018F3F09F441C0C82F7F
:10022000893008F0C8E08C1B8093010180910601A1
:1002300098E8892780930601CC2331F1209114019D
:10024000309115018091020186FF0BC0F901A7E0F2
:10025000B1E08C2F8A0F94919D9331968A13FBCF36
:1002600009C0D901E7E0F1E08C2F8E0F9D919193A9
:100270008E13FCCF8C2F815090E00196820F931F3C
:1002800090931501809314016C2F87E091E031D099
:10029000CC5FCC3019F08FEF80930101C093000147
:1002A00084E199B1937031F48150D9F7109217011C
:1002B00010921101DF91CF910895E9E6F0E080817D
:1002C00082608083E89A0895A82FB92F80E090E09B
:1002D00041E050EA609530E009C02D918227979562
:1002E000879510F084279527305EC8F36F5FA8F3D9
:1002F0000895EADF8D939D930895CF93CFB7CF9361
:10030000C395489BE9F7489B09C0489B07C0489B99
:1003100005C0489B03C0489B01C0A1C0DF93C091AA
:100320001301DD27C65EDE4F489B02C0DF91EBCF95
:100330002F930F931F9309B12FEF00FB20F94F93D9
:100340003F9319B14FEF012700FB21F93BE031C08A
:100350004E7F012F19B1216028C0102F4D7F2260E0
:10036000000009B129C04B7F2460012F000019B1A2
:100370002BC019B1477F28602AC04F7E09B1206188
:100380002CC04F7D19B120622FC04F7B09B1206472
:1003900032C0422709B149934FEF0000102710FBEC
:1003A00020F919B11370C9F1297F91F2012700FBDF
:1003B00021F909B1237F89F2315058F1102710FB40
:1003C00022F919B1277E79F2012700FB23F92F7C4E
:1003D00081F209B1102710FB24F92F7971F200C0C6
:1003E00019B1012700FB25F92F7359F200C009B19B
:1003F000102710FB26F9223040F200C019B1012766
:1004000000FB27F9243028F64F77206819B1000047
:10041000F9CF11E01CBB002717C03B503195C31B1F
:10042000D04011E01CBB0881033CE9F00B34D9F04B
:10043000209111011981110F1213EDCF093641F1ED
:100440000D3211F0013E39F7009318013F914F91A1
:100450001F910F912F91DF91CCB3C0FD51CFCF9160
:10046000CFBFCF91189520911801222379F31091D5
:100470001601112311F5343012F130931601209337
:100480001201109113013BE0311B3093130117C08F
:100490000091160101308CF40AE53091000134FD21
:1004A00010C000930001C6E0D1E00FC02795A8F46A
:1004B0005150A9F4220F0000F9CF4AE503C042EDE4
:1004C00001C0432FC4E1D0E032E01AB11360589A62
:1004D0001AB90BB120E413E05F93012756E00BB982
:1004E000279520F4515021F4220FF9CF012756E02F
:1004F00000003B5A0BB9D0F2279528F4515029F44B
:10050000220F0000F9CF012756E027950BB920F400
:10051000515021F4220FF9CF012756E029913323BE
:100520000BB921F60C7F10911701110FC651D04065
:100530000BB911F01093110111E01CBB01601AB14D
:100540001C7F402F4C7F5F9100C000C00BB91AB9CF
:100550004BB97CCF8EBD0DB407FEFDCF8EB508958F
:10056000FC01818180930301813011F48FEF0895A4
:100570008230E1F380E00895CF92DF92FF920F93F3
:100580001F93CF93DF931F92CDB7DEB76C0180919D
:100590000301813071F4FC2C860106C0F8018191C1
:1005A0008F016983D7DF6981802F8F198617B0F398
:1005B00015C080910301823089F4633079F481E0C1
:1005C000C9DFF6018081C6DFF6018181C3DFF60154
:1005D0008281C0DF88B191E0892788B981E00F90DE
:1005E000DF91CF911F910F91FF90DF90CF900895F1
:1005F0008CEF84B91BB881E087B984B18C6284B96F
:1006000024988CB580618CBD8CB583608CBD8CB515
:1006100080648CBD08952EE088E190E00FB6F894D8
:10062000A895809360000FBE20936000E1DF509A90
:1006300080E007C0A895EFE6F7E13197F1F700C039
:1006400000008150B9F7509838DE7894A89536DDCF
:06065000FDCFF894FFCF7E
:020656005AFF49
:00000001FF
