:1000000041C07BC15AC059C058C057C056C055C026
:1000100054C053C052C051C050C04FC04EC04DC05C
:100020004CC04BC04AC049C048C047C046C045C08C
:1000300044C043C009021200010100C00A090400C3
:1000400000000000000012011001FF000008C016AF
:10005000DC050001010200011603550053004200B7
:100060002000440069006D006D00650072001203FD
:10007000530079006E0066006F0072006700650033
:100080000403090411241FBECFEFD2E0DEBFCDBFB1
:1000900011E0A0E0B1E0E8E2F6E002C005900D92C8
:1000A000A230B107D9F711E0A2E0B1E001C01D9282
:1000B000AF32B107E1F798D2B5C2A2CFCF93DF93A9
:1000C00060911501635067FDA1C080911201CCE0E1
:1000D000D0E0C81BD109C75EDE4F809111018D327F
:1000E00009F083C0683009F08FC083EC809305016C
:1000F0008AE580930001109202012881822F807688
:1001000019F0CE012DD25EC09A8110920E01898124
:1001100081110BC02F7119F481E080930E011092B0
:100120000F012EE031E082E049C0853019F4909350
:10013000160138C0863081F58B81813019F486E450
:1001400090E004C0823041F484E390E09093140185
:100150008093130182E11CC08330C9F4911108C05F
:1001600080E890E0909314018093130184E010C024
:10017000913019F48EE690E0E9CF923041F488E5B1
:1001800090E0909314018093130186E101C080E018
:1001900090E49093020116C0883069F0893029F408
:1001A000909318012EE031E004C02EE031E08A3057
:1001B00021F080E003C028E131E081E030931401B8
:1001C000209313018F3F39F4988197FD8E8190E839
:1001D0009093020107C09F81911104C09E819817DE
:1001E00008F4892F809301010FC08091020187FFDD
:1001F0000BC0CE01BDD18F3F21F48EE18093000171
:1002000003C081111092010110921501809100012B
:1002100084FF46C0809101018F3F09F441C0C82F7F
:10022000893008F0C8E08C1B8093010180910501A2
:1002300098E8892780930501CC2331F1209113019F
:10024000309114018091020186FF0BC0F901A6E0F4
:10025000B1E08C2F8A0F94919D9331968A13FBCF36
:1002600009C0D901E6E0F1E08C2F8E0F9D919193AA
:100270008E13FCCF8C2F815090E00196820F931F3C
:1002800090931401809313016C2F86E091E031D09C
:10029000CC5FCC3019F08FEF80930101C093000147
:1002A00084E199B1937031F48150D9F7109216011D
:1002B00010921001DF91CF910895E9E6F0E080817E
:1002C00082608083E89A0895A82FB92F80E090E09B
:1002D00041E050EA609530E009C02D918227979562
:1002E000879510F084279527305EC8F36F5FA8F3D9
:1002F0000895EADF8D939D930895CF93CFB7CF9361
:10030000C395489BE9F7489B09C0489B07C0489B99
:1003100005C0489B03C0489B01C0A1C0DF93C091AA
:100320001201DD27C75EDE4F489B02C0DF91EBCF95
:100330002F930F931F9309B12FEF00FB20F94F93D9
:100340003F9319B14FEF012700FB21F93BE031C08A
:100350004E7F012F19B1216028C0102F4D7F2260E0
:10036000000009B129C04B7F2460012F000019B1A2
:100370002BC019B1477F28602AC04F7E09B1206188
:100380002CC04F7D19B120622FC04F7B09B1206472
:1003900032C0422709B149934FEF0000102710FBEC
:1003A00020F919B11370C9F1297F91F2012700FBDF
:1003B00021F909B1237F89F2315058F1102710FB40
:1003C00022F919B1277E79F2012700FB23F92F7C4E
:1003D00081F209B1102710FB24F92F7971F200C0C6
:1003E00019B1012700FB25F92F7359F200C009B19B
:1003F000102710FB26F9223040F200C019B1012766
:1004000000FB27F9243028F64F77206819B1000047
:10041000F9CF11E01CBB002717C03B503195C31B1F
:10042000D04011E01CBB0881033CE9F00B34D9F04B
:10043000209110011981110F1213EDCF093641F1EE
:100440000D3211F0013E39F7009317013F914F91A2
:100450001F910F912F91DF91CCB3C0FD51CFCF9160
:10046000CFBFCF91189520911701222379F31091D6
:100470001501112311F5343012F130931501209339
:100480001101109112013BE0311B3093120117C092
:100490000091150101308CF40AE53091000134FD22
:1004A00010C000930001C5E0D1E00FC02795A8F46B
:1004B0005150A9F4220F0000F9CF4AE503C042EDE4
:1004C00001C0432FC4E1D0E032E01AB11360589A62
:1004D0001AB90BB120E413E05F93012756E00BB982
:1004E000279520F4515021F4220FF9CF012756E02F
:1004F00000003B5A0BB9D0F2279528F4515029F44B
:10050000220F0000F9CF012756E027950BB920F400
:10051000515021F4220FF9CF012756E029913323BE
:100520000BB921F60C7F10911601110FC651D04066
:100530000BB911F01093100111E01CBB01601AB14E
:100540001C7F402F4C7F5F9100C000C00BB91AB9CF
:100550004BB97CCF8EBD0DB407FEFDCF8EB508958F
:10056000FC018181813011F48FEF089580E00895BE
:10057000EF92FF920F931F93CF93DF931F92CDB70C
:10058000DEB7182FE82EF92E01E00EC0F7018081AA
:10059000803819F498B1902798B98FEFE81AF80AC3
:1005A00080816983D7DF69818E2D811B861770F367
:1005B00081E00F90DF91CF911F910F91FF90EF900D
:1005C00008958CEF84B91BB881E087B984B18C623F
:1005D00084B924988CB580618CBD8CB583608CBD4A
:1005E0008CB580648CBD08952EE088E190E00FB654
:1005F000F894A895809360000FBE20936000E1DF1F
:10060000509A80E007C0A895EFE6F7E13197F1F73F
:1006100000C000008150B9F750984FDE7894A8953B
:080620004DDDFDCFF894FFCF82
:020628005AFF77
:00000001FF
