:1000000046C06CC15FC05EC05DC05CC05BC05AC012
:1000100059C058C057C056C055C054C053C052C034
:1000200051C050C04FC04EC04DC04CC04BC04AC064
:1000300049C048C009021200010100C00A090400B9
:1000400000000000000012011001FF000008C016AF
:10005000DC05000101020001180350006F00770069
:100060006500720053007700690074006300680047
:100070001A037700770077002E006F00620064009B
:10008000650076002E006100740004030904112449
:100090001FBECFEFD2E0DEBFCDBF11E0A0E0B1E0E8
:1000A000ECEEF5E002C005900D92A230B107D9F751
:1000B00011E0A2E0B1E001C01D92A133B107E1F768
:1000C00075D292C29DCFCF93DF9380911701835059
:1000D00087FD8DC090911401209113012D3209F0FC
:1000E00084C0883009F081C0CCE0D0E0C91BD109C0
:1000F000C55EDE4F83EC809307018AE580930001A3
:10010000109202012881822F807619F0CE0119D237
:1001100063C09A8110921001898181110BC02F71E7
:1001200019F481E0809310011092110120E131E077
:1001300082E04EC0853019F4909318013DC086309E
:10014000A9F58B81813019F486E490E004C08230F7
:1001500041F484E390E0909316018093150182E1CD
:1001600021C08330F1F4911108C08AE890E09093A7
:1001700016018093150184E015C0913041F480E7A9
:1001800090E090931601809315018AE10BC09230A4
:1001900041F488E590E0909316018093150188E181
:1001A00001C080E090E49093020116C0883069F0AD
:1001B000893029F490931A0120E131E004C020E154
:1001C00031E08A3021F080E003C02AE131E081E0B3
:1001D00030931601209315019F81911104C09E81D7
:1001E000981708F4892F80930101109217018091CC
:1001F000000184FF46C0809101018F3F09F441C096
:10020000C82F893008F0C8E08C1B809301018091D1
:10021000070198E8892780930701CC2331F12091C9
:100220001501309116018091020186FF0BC0F90182
:10023000A8E0B1E08C2F8A0F94919D9331968A1398
:10024000FBCF09C0D901E8E0F1E08C2F8E0F9D9122
:1002500091938E13FCCF8C2F815090E00196820FEA
:10026000931F90931601809315016C2F88E091E005
:1002700031D0CC5FCC3019F08FEF80930101C09367
:10028000000184E199B1937031F48150D9F7109253
:10029000180110921201DF91CF910895E9E6F0E084
:1002A000808182608083E89A0895A82FB92F80E02A
:1002B00090E041E050EA609530E009C02D9182273E
:1002C0009795879510F084279527305EC8F36F5F68
:1002D000A8F30895EADF8D939D930895CF93CFB748
:1002E000CF93C395489BE9F7489B09C0489B07C03B
:1002F000489B05C0489B03C0489B01C0A1C0DF9339
:10030000C0911401DD27C55EDE4F489B02C0DF911E
:10031000EBCF2F930F931F9309B12FEF00FB20F921
:100320004F933F9319B14FEF012700FB21F93BE0B9
:1003300031C04E7F012F19B1216028C0102F4D7F91
:100340002260000009B129C04B7F2460012F00000A
:1003500019B12BC019B1477F28602AC04F7E09B15F
:1003600020612CC04F7D19B120622FC04F7B09B195
:10037000206432C0422709B149934FEF0000102793
:1003800010FB20F919B11370C9F1297F91F20127EF
:1003900000FB21F909B1237F89F2315058F1102770
:1003A00010FB22F919B1277E79F2012700FB23F90E
:1003B0002F7C81F209B1102710FB24F92F7971F2FB
:1003C00000C019B1012700FB25F92F7359F200C0B5
:1003D00009B1102710FB26F9223040F200C019B1F4
:1003E000012700FB27F9243028F64F77206819B140
:1003F0000000F9CF11E01CBB002717C03B5031951E
:10040000C31BD04011E01CBB0881033CE9F00B3456
:10041000D9F0209112011981110F1213EDCF093675
:1004200041F10D3211F0013E39F7009319013F916E
:100430004F911F910F912F91DF91CCB3C0FD51CF00
:10044000CF91CFBFCF91189520911901222379F335
:1004500010911701112311F5343012F13093170167
:1004600020931301109114013BE0311B30931401D0
:1004700017C00091170101308CF40AE5309100019A
:1004800034FD10C000930001C7E0D1E00FC02795F4
:10049000A8F45150A9F4220F0000F9CF4AE503C097
:1004A00042ED01C0432FC4E1D0E032E01AB1136045
:1004B000589A1AB90BB120E413E05F93012756E074
:1004C0000BB9279520F4515021F4220FF9CF0127C1
:1004D00056E000003B5A0BB9D0F2279528F4515052
:1004E00029F4220F0000F9CF012756E027950BB918
:1004F00020F4515021F4220FF9CF012756E0299121
:1005000033230BB921F60C7F10911801110FC6513E
:10051000D0400BB911F01093120111E01CBB016027
:100520001AB11C7F402F4C7F5F9100C000C00BB9F7
:100530001AB94BB97CCF8EBD0DB407FEFDCF8EB579
:100540000895FC0185E091E09093160180931501D8
:100550008181811107C0828180930501838180930D
:10056000060105C0813029F48FEF8093050182E0F8
:100570000895843029F48481DEDF88B1809588B9BC
:1005800080E008958CEF84B91BB88FEF87B988B9E4
:1005900084B18C6284B924988CB580618CBD8CB593
:1005A00083608CBD8CB580648CBD08952EE088E19D
:1005B00090E00FB6F894A895809360000FBE20934A
:1005C0006000E0DF509A80E007C0A895EFE6F7E111
:1005D0003197F1F700C000008150B9F750985EDE06
:0C05E0007894A89570DDFDCFF894FFCF53
:0205EC005AFFB4
:00000001FF
