:1000000019C077C027C026C025C024C023C022C085
:1000100021C020C01FC095C01DC01CC0F0C01AC0A8
:1000200019C018C017C016C015C014C013C012C024
:1000300011C010C011241FBECFEFD2E0DEBFCDBF74
:1000400011E0A0E0B1E001C01D92AC30B107E1F7D2
:100050000ED13AC1D5CF80E287B982E080936900A2
:10006000E89A84BD95E095BD9CE997BD80936E00AC
:1000700084B1837D84B9249A8CB58F7E8CBD8CB578
:1000800083608CBD8CB580648CBD7894089583E0CA
:100090008AB98BE290E01BB8109200011092010126
:1000A000909303018093020121E0209304011092B8
:1000B000050110920601909308018093070182E0E8
:1000C00080930901089595E0899FF0011124E05083
:1000D000FF4F6183089595E0899FF0011124E0505E
:1000E000FF4F6183608308958295880F807E88B971
:1000F00008951F920F920FB60F9211248F939F9322
:10010000EF93FF9380E091E090930B0180930A01BD
:10011000E1E8F0E080818960808380E991E090935C
:10012000890080938800EFE6F0E080818260808320
:10013000FF91EF919F918F910F900FBE0F901F90A5
:1001400018951F920F920FB60F9211242F933F9381
:100150004F935F936F938F939F93AF93BF93CF937F
:10016000DF93EF93FF9380910A0190910B01019728
:1001700090930B0180930A01A2E0B1E0E4E0F1E08A
:1001800080E090E065E0689FE001699FD00D112458
:10019000C050DF4F28812223D1F0488120910A01ED
:1001A00030910B0150E04217530788F0CD91DC915C
:1001B000119728813081232B288328E22A95F1F793
:1001C000CD91DC91119728813081232728830196D6
:1001D0001596359682309105B1F6FF91EF91DF913A
:1001E000CF91BF91AF919F918F916F915F914F91FF
:1001F0003F912F910F900FBE0F901F9018951F9257
:100200000F920FB60F9211248F939F93909101013B
:1002100080910001891750F09091010180910001B7
:10022000981748F480910001815003C0809100012B
:100230008F5F8093000190910601809105018917DD
:1002400020F4809105018F5F09C090910601809193
:100250000501981728F480910501815080930501CC
:100260009F918F910F900FBE0F901F901895CF9375
:10027000DF9300D000D0CDB7DEB7EDDE08DF80E041
:1002800020E295E00DB407FEFDCF3EB5E1E0F0E0E1
:10029000EC0FFD1FE80FF11D30838F5F3981313086
:1002A00089F7843079F73A818C81EB819E9FF00148
:1002B0001124E050FF4F8183311101C0808388B148
:0C02C000822788B980E0DECFF894FFCFE1
:00000001FF
