:100000000C9434000C9498000C9451000C94510002
:100010000C9451000C9451000C9451000C9451001C
:100020000C9451000C9451000C9451000C94C0009D
:100030000C9451000C9451000C9451000C945100FC
:100040000C9451000C9451000C9451000C945100EC
:100050000C9451000C9451000C9451000C945100DC
:100060000C9451000C94510011241FBECFEFD8E026
:10007000DEBFCDBF11E0A0E0B1E0EAE8F2E002C0EF
:1000800005900D92A830B107D9F711E0A8E0B1E0D2
:1000900001C01D92AA31B107E1F70E9421010C9421
:1000A00043010C94000080E287B9E9E6F0E080812A
:1000B00082608083E89A84B1837D84B9249A8CB568
:1000C0008F7E8CBD8CB583608CBD8CB580648CBDFF
:1000D000789408958AB18B6F8AB98BB184708BB98B
:1000E000209A0895972FE62FF72F05C00DB407FE2D
:1000F000FDCF2EB521932E2F261B2817B8F3862F60
:100100000895E82FF0E0E05FFE4F608380E288B959
:10011000089590E0FC01E85FFE4F6083FC01E05F22
:10012000FE4F608308958295880F807E88B9089578
:100130001F920F920FB60F9211248F939F93EF93FC
:10014000FF9380E091E09093190180931801E1E81A
:10015000F0E080818960808380E991E0909389005C
:1001600080938800EFE6F0E0808182608083FF91D9
:10017000EF919F918F910F900FBE0F901F90189548
:100180001F920F920FB60F9211242F933F934F930C
:100190005F938F939F93AF93BF93EF93FF93809160
:1001A00018019091190101979093190180931801FA
:1001B000E0E0F1E080E090E0DC01A85FBE4F4C9110
:1001C000209118013091190150E04217530768F04F
:1001D0002C91222351F0873021F425B13081232B3B
:1001E00015C02BB13081232B17C04C9120911801E1
:1001F0003091190150E02F5F3F4F4217530768F0CD
:10020000873031F435B120812095232325B905C0ED
:100210003BB12081209523232BB90196319688305C
:10022000910551F6FF91EF91BF91AF919F918F9101
:100230005F914F913F912F910F900FBE0F901F90A4
:100240001895CF93DF9300D01F92CDB7DEB70E94F1
:1002500053000E946A000DB407FEFDCF8EB58130B9
:10026000D1F7BE016F5F7F4F83E00E9472002B8148
:100270008A8190E0FC01E85FFE4F2083FC01E05F93
:0A028000FE4F2083E8CFF894FFCF73
:08028A00010208102040800170
:00000001FF
