:1000000019C086C032C031C030C02FC02EC02DC034
:100010002CC02BC02AC0A4C028C027C0EAC025C05D
:1000200024C053C022C021C020C01FC01EC01DC09C
:100030001CC01BC011241FBECFEFD2E0DEBFCDBF5E
:1000400011E0A0E0B1E0E8EAF2E002C005900D9214
:10005000A230B107D9F711E0A2E0B1E001C01D92D2
:10006000A830B107E1F7FDD01DC1CACF80E287B942
:1000700082E080936900E89A84BD95E095BD9CE993
:1000800097BD80936E0084B1837D84B9249A8CB52A
:100090008F7E8CBD8CB583608CBD8CB580648CBD2F
:1000A0007894089583E08AB91BB80895972FE62FB6
:1000B000F72F05C00DB407FEFDCF2EB521932E2FCF
:1000C000261B2817B8F3862F08951F920F920FB69C
:1000D0000F9211248F9380E288B98F910F900FBEF9
:1000E0000F901F901895E82FF0E0EC5FFE4F6083B3
:1000F000089590E0FC01EE5FFE4F6083FC01EC5F31
:10010000FE4F608308958295880F807E88B9089598
:100110001F920F920FB60F9211248F939F93EF931C
:10012000FF9380E091E09093070180930601E1E85E
:10013000F0E080818960808380E991E0909389007C
:1001400080938800EFE6F0E0808182608083FF91F9
:10015000EF919F918F910F900FBE0F901F90189568
:100160001F920F920FB60F9211242F933F938F93EC
:100170009F93809106019091070101979093070149
:100180008093060120910201809106019091070160
:1001900030E02817390768F08BB190910001892B66
:1001A0008BB988E28A95F1F78BB19091000189278C
:1001B0008BB920910301809106019091070130E0F5
:1001C0002817390768F08BB190910101892B8BB901
:1001D00088E28A95F1F78BB19091010189278BB95B
:1001E0009F918F913F912F910F900FBE0F901F9075
:1001F00018951F920F920FB60F9211248F939F9311
:100200009091040180910201891750F090910401AE
:1002100080910201981748F480910201815003C037
:10022000809102018F5F809302019091050180917E
:100230000301891720F4809103018F5F09C0909119
:10024000050180910301981728F4809103018150E2
:10025000809303019F918F910F900FBE0F901F907D
:100260001895CF93DF9300D01F92CDB7DEB7FEDE97
:1002700019DF0DB407FEFDCF8EB58130D1F7BE0179
:100280006F5F7F4F83E012DF99818B81EA81F0E01D
:10029000911104C0DF01AE5FBE4F8C93EC5FFE4F47
:0802A0008083E7CFF894FFCF43
:0202A800010251
:00000001FF
