:100000000C9434000C949E000C9451000C945100FC
:100010000C9451000C9451000C9451000C9451001C
:100020000C9451000C9451000C9451000C94C60097
:100030000C9451000C9451000C9419010C94510033
:100040000C9451000C9451000C9451000C945100EC
:100050000C9451000C9451000C9451000C945100DC
:100060000C9451000C94510011241FBECFEFD8E026
:10007000DEBFCDBF11E0A0E0B1E0E6E5F3E002C0F5
:1000800005900D92A830B107D9F711E0A8E0B1E0D2
:1000900001C01D92AA31B107E1F70E9451010C94F1
:1000A000A9010C94000080E287B9E9E6F0E08081C4
:1000B00082608083E89A82E084BD95E095BD9CE9EA
:1000C00097BD80936E0084B1837D84B9249A8CB5EA
:1000D0008F7E8CBD8CB583608CBD8CB580648CBDEF
:1000E000789408958AB18B6F8AB98BB184708BB97B
:1000F000209A0895972FE62FF72F05C00DB407FE1D
:10010000FDCF2EB521932E2F261B2817B8F3862F4F
:100110000895E82FF0E0E05FFE4F6083089590E0DF
:10012000FC01E85FFE4F6083FC01E05FFE4F6083EF
:1001300008958295880F807E88B908951F920F9246
:100140000FB60F9211248F939F93EF93FF9380E04C
:1001500091E09093190180931801E1E8F0E080812B
:100160008960808380E991E0909389008093880082
:10017000EFE6F0E0808182608083FF91EF919F91B4
:100180008F910F900FBE0F901F9018951F920F9296
:100190000FB60F9211242F933F934F935F938F933A
:1001A0009F93AF93BF93EF93FF938091180190912A
:1001B000190101979093190180931801E0E0F1E093
:1001C00080E090E0DC01A85FBE4F4C9120911801C7
:1001D0003091190150E04217530738F02C91222337
:1001E00021F02BB13081232B0FC04C9120911801AD
:1001F0003091190150E02F5F3F4F4217530728F00D
:100200003BB12081209523232BB901963196823072
:100210009105C1F6FF91EF91BF91AF919F918F91A1
:100220005F914F913F912F910F900FBE0F901F90B4
:1002300018951F920F920FB60F9211248F939F93D0
:100240009091100180910801891750F09091100150
:1002500080910801981748F480910801815003C0EB
:10026000809108018F5F8093080190911101809126
:100270000901891720F4809109018F5F09C09091CD
:10028000110180910901981728F48091090181508A
:10029000809309019F918F910F900FBE0F901F9037
:1002A0001895CF93DF9300D01F92CDB7DEB70E9491
:1002B00053000E94720010E20DB407FEFDCF0EB590
:1002C000013099F4BE016F5F7F4F83E00E947A0096
:1002D00099818B81EA81F0E0911104C0DF01A85F70
:1002E000BE4F8C93E05FFE4F32C0802F8250823031
:1002F00018F7023019F488B1812788B9BE016F5F01
:100300007F4F83E00E947A002A8130E0F901E85FA4
:10031000FE4F808190E04B81023049F4840F911DA3
:100320008F3F910551F04CF08FEF90E006C0841B99
:10033000910997FF02C080E090E04981F901E05FF8
:10034000FE4F411104C0D901A85FBE4F8C9380833A
:06035000B3CFF894FFCFCB
:080356000102081020408001A3
:00000001FF
